{
  "contractName": "RentalHistory",
  "abi": [
    {
      "inputs": [],
      "stateMutability": "nonpayable",
      "type": "constructor"
    },
    {
      "anonymous": false,
      "inputs": [
        {
          "indexed": false,
          "internalType": "string",
          "name": "productId",
          "type": "string"
        },
        {
          "indexed": false,
          "internalType": "string",
          "name": "name",
          "type": "string"
        },
        {
          "indexed": false,
          "internalType": "uint256",
          "name": "timestamp",
          "type": "uint256"
        }
      ],
      "name": "ProductRegistered",
      "type": "event"
    },
    {
      "anonymous": false,
      "inputs": [
        {
          "indexed": false,
          "internalType": "string",
          "name": "productId",
          "type": "string"
        },
        {
          "indexed": false,
          "internalType": "address",
          "name": "renter",
          "type": "address"
        },
        {
          "indexed": false,
          "internalType": "uint256",
          "name": "timestamp",
          "type": "uint256"
        }
      ],
      "name": "RentalRecorded",
      "type": "event"
    },
    {
      "anonymous": false,
      "inputs": [
        {
          "indexed": false,
          "internalType": "string",
          "name": "productId",
          "type": "string"
        },
        {
          "indexed": false,
          "internalType": "address",
          "name": "renter",
          "type": "address"
        },
        {
          "indexed": false,
          "internalType": "uint256",
          "name": "timestamp",
          "type": "uint256"
        },
        {
          "indexed": false,
          "internalType": "string",
          "name": "condition",
          "type": "string"
        }
      ],
      "name": "ReturnRecorded",
      "type": "event"
    },
    {
      "inputs": [],
      "name": "admin",
      "outputs": [
        {
          "internalType": "address",
          "name": "",
          "type": "address"
        }
      ],
      "stateMutability": "view",
      "type": "function"
    },
    {
      "inputs": [
        {
          "internalType": "string",
          "name": "",
          "type": "string"
        }
      ],
      "name": "products",
      "outputs": [
        {
          "internalType": "string",
          "name": "productId",
          "type": "string"
        },
        {
          "internalType": "string",
          "name": "name",
          "type": "string"
        },
        {
          "internalType": "address",
          "name": "owner",
          "type": "address"
        },
        {
          "internalType": "bool",
          "name": "isRegistered",
          "type": "bool"
        },
        {
          "internalType": "uint256",
          "name": "registeredAt",
          "type": "uint256"
        },
        {
          "internalType": "string",
          "name": "currentCondition",
          "type": "string"
        }
      ],
      "stateMutability": "view",
      "type": "function"
    },
    {
      "inputs": [
        {
          "internalType": "string",
          "name": "productId",
          "type": "string"
        },
        {
          "internalType": "string",
          "name": "name",
          "type": "string"
        }
      ],
      "name": "registerProduct",
      "outputs": [],
      "stateMutability": "nonpayable",
      "type": "function"
    },
    {
      "inputs": [
        {
          "internalType": "string",
          "name": "productId",
          "type": "string"
        },
        {
          "internalType": "address",
          "name": "renter",
          "type": "address"
        }
      ],
      "name": "recordRental",
      "outputs": [],
      "stateMutability": "nonpayable",
      "type": "function"
    },
    {
      "inputs": [
        {
          "internalType": "string",
          "name": "productId",
          "type": "string"
        },
        {
          "internalType": "address",
          "name": "renter",
          "type": "address"
        },
        {
          "internalType": "string",
          "name": "condition",
          "type": "string"
        },
        {
          "internalType": "string",
          "name": "notes",
          "type": "string"
        }
      ],
      "name": "recordReturn",
      "outputs": [],
      "stateMutability": "nonpayable",
      "type": "function"
    },
    {
      "inputs": [
        {
          "internalType": "string",
          "name": "productId",
          "type": "string"
        }
      ],
      "name": "getProductHistory",
      "outputs": [
        {
          "internalType": "bool",
          "name": "isRegistered",
          "type": "bool"
        },
        {
          "internalType": "string",
          "name": "name",
          "type": "string"
        },
        {
          "internalType": "string",
          "name": "currentCondition",
          "type": "string"
        },
        {
          "components": [
            {
              "internalType": "address",
              "name": "renter",
              "type": "address"
            },
            {
              "internalType": "uint256",
              "name": "rentedAt",
              "type": "uint256"
            },
            {
              "internalType": "uint256",
              "name": "returnedAt",
              "type": "uint256"
            },
            {
              "internalType": "string",
              "name": "condition",
              "type": "string"
            },
            {
              "internalType": "string",
              "name": "notes",
              "type": "string"
            },
            {
              "internalType": "bool",
              "name": "isReturned",
              "type": "bool"
            }
          ],
          "internalType": "struct RentalHistory.RentalRecord[]",
          "name": "history",
          "type": "tuple[]"
        }
      ],
      "stateMutability": "view",
      "type": "function"
    }
  ],
  "bytecode": "0x608060405234801561001057600080fd5b50600080546001600160a01b03191633179055611365806100326000396000f3fe608060405234801561001057600080fd5b50600436106100625760003560e01c80630186a423146100675780638fbd0dcf14610095578063d4f50453146100aa578063d957b1af146100cd578063f851a440146100e0578063f9f29fad146100f5575b600080fd5b61007a610075366004610e0f565b610108565b60405161008c96959493929190611145565b60405180910390f35b6100a86100a3366004610f2b565b6102f1565b005b6100bd6100b8366004610e0f565b610510565b60405161008c9493929190610fe8565b6100a86100db366004610e96565b610839565b6100e8610b06565b60405161008c9190610fd4565b6100a8610103366004610e4a565b610b15565b805160208183018101805160018252928201919093012091528054819061012e906112b7565b80601f016020809104026020016040519081016040528092919081815260200182805461015a906112b7565b80156101a75780601f1061017c576101008083540402835291602001916101a7565b820191906000526020600020905b81548152906001019060200180831161018a57829003601f168201915b5050505050908060010180546101bc906112b7565b80601f01602080910402602001604051908101604052809291908181526020018280546101e8906112b7565b80156102355780601f1061020a57610100808354040283529160200191610235565b820191906000526020600020905b81548152906001019060200180831161021857829003601f168201915b505050506002830154600384015460048501805494956001600160a01b03841695600160a01b90940460ff169450919261026e906112b7565b80601f016020809104026020016040519081016040528092919081815260200182805461029a906112b7565b80156102e75780601f106102bc576101008083540402835291602001916102e7565b820191906000526020600020905b8154815290600101906020018083116102ca57829003601f168201915b5050505050905086565b6000546001600160a01b031633146103245760405162461bcd60e51b815260040161031b9061120f565b60405180910390fd5b6001826040516103349190610fb8565b9081526040519081900360200190206002015460ff600160a01b909104161561036f5760405162461bcd60e51b815260040161031b90611250565b816001836040516103809190610fb8565b908152602001604051809103902060000190805190602001906103a4929190610cd9565b50806001836040516103b69190610fb8565b908152602001604051809103902060010190805190602001906103da929190610cd9565b50336001836040516103ec9190610fb8565b908152602001604051809103902060020160006101000a8154816001600160a01b0302191690836001600160a01b03160217905550600180836040516104329190610fb8565b908152602001604051809103902060020160146101000a81548160ff0219169083151502179055504260018360405161046b9190610fb8565b908152602001604051809103902060030181905550604051806040016040528060038152602001624e657760e81b8152506001836040516104ac9190610fb8565b908152602001604051809103902060040190805190602001906104d0929190610cd9565b507f7baff2846ce0b6b9ab35026a6b4bf9f4ca376602cbb4cada29aac130fe51b3d5828242604051610504939291906111a9565b60405180910390a15050565b6000606080606060006001866040516105299190610fb8565b908152602001604051809103902090508060020160149054906101000a900460ff16816001018260040183600501828054610563906112b7565b80601f016020809104026020016040519081016040528092919081815260200182805461058f906112b7565b80156105dc5780601f106105b1576101008083540402835291602001916105dc565b820191906000526020600020905b8154815290600101906020018083116105bf57829003601f168201915b505050505092508180546105ef906112b7565b80601f016020809104026020016040519081016040528092919081815260200182805461061b906112b7565b80156106685780601f1061063d57610100808354040283529160200191610668565b820191906000526020600020905b81548152906001019060200180831161064b57829003601f168201915b5050505050915080805480602002602001604051908101604052809291908181526020016000905b828210156108235760008481526020908190206040805160c0810182526006860290920180546001600160a01b031683526001810154938301939093526002830154908201526003820180549192916060840191906106ee906112b7565b80601f016020809104026020016040519081016040528092919081815260200182805461071a906112b7565b80156107675780601f1061073c57610100808354040283529160200191610767565b820191906000526020600020905b81548152906001019060200180831161074a57829003601f168201915b50505050508152602001600482018054610780906112b7565b80601f01602080910402602001604051908101604052809291908181526020018280546107ac906112b7565b80156107f95780601f106107ce576101008083540402835291602001916107f9565b820191906000526020600020905b8154815290600101906020018083116107dc57829003601f168201915b50505091835250506005919091015460ff1615156020918201529082526001929092019101610690565b5050505090509450945094509450509193509193565b6000546001600160a01b031633146108635760405162461bcd60e51b815260040161031b9061120f565b6001846040516108739190610fb8565b9081526040519081900360200190206002015460ff600160a01b909104166108ad5760405162461bcd60e51b815260040161031b906111df565b60006001856040516108bf9190610fb8565b9081526020016040518091039020600501905060005b8154811015610afe57846001600160a01b031682828154811061090857634e487b7160e01b600052603260045260246000fd5b60009182526020909120600690910201546001600160a01b0316148015610963575081818154811061094a57634e487b7160e01b600052603260045260246000fd5b600091825260209091206005600690920201015460ff16155b15610aec574282828154811061098957634e487b7160e01b600052603260045260246000fd5b906000526020600020906006020160020181905550838282815481106109bf57634e487b7160e01b600052603260045260246000fd5b906000526020600020906006020160030190805190602001906109e3929190610cd9565b5082828281548110610a0557634e487b7160e01b600052603260045260246000fd5b90600052602060002090600602016004019080519060200190610a29929190610cd9565b506001828281548110610a4c57634e487b7160e01b600052603260045260246000fd5b906000526020600020906006020160050160006101000a81548160ff02191690831515021790555083600187604051610a859190610fb8565b90815260200160405180910390206004019080519060200190610aa9929190610cd9565b507f96c2ddcde2737b2fffe682f68d37a7e35f124e1bac770accff15ff53789ca41786864287604051610adf94939291906110ff565b60405180910390a1610afe565b80610af6816112f2565b9150506108d5565b505050505050565b6000546001600160a01b031681565b6000546001600160a01b03163314610b3f5760405162461bcd60e51b815260040161031b9061120f565b600182604051610b4f9190610fb8565b9081526040519081900360200190206002015460ff600160a01b90910416610b895760405162461bcd60e51b815260040161031b906111df565b6040805160c0810182526001600160a01b038316815242602080830191909152600082840181905283518083018552818152606084015283519182018452808252608083019190915260a08201529051600190610be7908590610fb8565b9081526040805160209281900383019020600501805460018082018355600092835291849020855160069092020180546001600160a01b0319166001600160a01b039092169190911781558484015191810191909155908301516002820155606083015180518493610c60926003850192910190610cd9565b5060808201518051610c7c916004840191602090910190610cd9565b5060a091909101516005909101805460ff19169115159190911790556040517f8921b90783133882ed2a5dea20974fbd8327de1457e612deb4dda5b3585e66df90610ccc908590859042906110d1565b60405180910390a1505050565b828054610ce5906112b7565b90600052602060002090601f016020900481019282610d075760008555610d4d565b82601f10610d2057805160ff1916838001178555610d4d565b82800160010185558215610d4d579182015b82811115610d4d578251825591602001919060010190610d32565b50610d59929150610d5d565b5090565b5b80821115610d595760008155600101610d5e565b80356001600160a01b0381168114610d8957600080fd5b919050565b600082601f830112610d9e578081fd5b813567ffffffffffffffff80821115610db957610db9611319565b604051601f8301601f191681016020018281118282101715610ddd57610ddd611319565b604052828152848301602001861015610df4578384fd5b82602086016020830137918201602001929092529392505050565b600060208284031215610e20578081fd5b813567ffffffffffffffff811115610e36578182fd5b610e4284828501610d8e565b949350505050565b60008060408385031215610e5c578081fd5b823567ffffffffffffffff811115610e72578182fd5b610e7e85828601610d8e565b925050610e8d60208401610d72565b90509250929050565b60008060008060808587031215610eab578182fd5b843567ffffffffffffffff80821115610ec2578384fd5b610ece88838901610d8e565b9550610edc60208801610d72565b94506040870135915080821115610ef1578384fd5b610efd88838901610d8e565b93506060870135915080821115610f12578283fd5b50610f1f87828801610d8e565b91505092959194509250565b60008060408385031215610f3d578182fd5b823567ffffffffffffffff80821115610f54578384fd5b610f6086838701610d8e565b93506020850135915080821115610f75578283fd5b50610f8285828601610d8e565b9150509250929050565b60008151808452610fa4816020860160208601611287565b601f01601f19169290920160200192915050565b60008251610fca818460208701611287565b9190910192915050565b6001600160a01b0391909116815260200190565b6000608086151583526020818185015261100482850188610f8c565b6040858203818701526110178289610f8c565b9150606086830381880152828851808552858501915085868202860101868b01895b838110156110bd57878303601f19018552815180516001600160a01b03168452898101518a85015287810151888501528681015160c08886018190529061108282870182610f8c565b9150508b8201518582038d87015261109a8282610f8c565b60a093840151151596909301959095525094890194925090880190600101611039565b50909e9d5050505050505050505050505050565b6000606082526110e46060830186610f8c565b6001600160a01b039490941660208301525060400152919050565b6000608082526111126080830187610f8c565b6001600160a01b038616602084015260408301859052828103606084015261113a8185610f8c565b979650505050505050565b600060c0825261115860c0830189610f8c565b828103602084015261116a8189610f8c565b6001600160a01b038816604085015286151560608501526080840186905283810360a0850152905061119c8185610f8c565b9998505050505050505050565b6000606082526111bc6060830186610f8c565b82810360208401526111ce8186610f8c565b915050826040830152949350505050565b602080825260169082015275141c9bd91d58dd081b9bdd081c9959da5cdd195c995960521b604082015260600190565b60208082526021908201527f4f6e6c792061646d696e2063616e2063616c6c20746869732066756e6374696f6040820152603760f91b606082015260800190565b6020808252601a908201527f50726f6475637420616c72656164792072656769737465726564000000000000604082015260600190565b60005b838110156112a257818101518382015260200161128a565b838111156112b1576000848401525b50505050565b6002810460018216806112cb57607f821691505b602082108114156112ec57634e487b7160e01b600052602260045260246000fd5b50919050565b600060001982141561131257634e487b7160e01b81526011600452602481fd5b5060010190565b634e487b7160e01b600052604160045260246000fdfea2646970667358221220414e0db18612e125a8f9cfd149c30e0fdf5c4e827aa4f8db5981f8cf761ab54264736f6c63430008000033",
  "immutableReferences": {},
  "source": "// SPDX-License-Identifier: MIT\r\npragma solidity ^0.8.0;\r\n\r\ncontract RentalHistory {\r\n    address public admin;\r\n    \r\n    struct RentalRecord {\r\n        address renter;\r\n        uint256 rentedAt;\r\n        uint256 returnedAt;\r\n        string condition;\r\n        string notes;\r\n        bool isReturned;\r\n    }\r\n    \r\n    struct Product {\r\n        string productId;\r\n        string name;\r\n        address owner;\r\n        bool isRegistered;\r\n        uint256 registeredAt;\r\n        string currentCondition;\r\n        RentalRecord[] rentalHistory;\r\n    }\r\n    \r\n    mapping(string => Product) public products;\r\n    \r\n    event ProductRegistered(string productId, string name, uint256 timestamp);\r\n    event RentalRecorded(string productId, address renter, uint256 timestamp);\r\n    event ReturnRecorded(string productId, address renter, uint256 timestamp, string condition);\r\n    \r\n    modifier onlyAdmin() {\r\n        require(msg.sender == admin, \"Only admin can call this function\");\r\n        _;\r\n    }\r\n    \r\n    constructor() {\r\n        admin = msg.sender;\r\n    }\r\n    \r\n    function registerProduct(string memory productId, string memory name) public onlyAdmin {\r\n        require(!products[productId].isRegistered, \"Product already registered\");\r\n        \r\n        products[productId].productId = productId;\r\n        products[productId].name = name;\r\n        products[productId].owner = msg.sender;\r\n        products[productId].isRegistered = true;\r\n        products[productId].registeredAt = block.timestamp;\r\n        products[productId].currentCondition = \"New\";\r\n        \r\n        emit ProductRegistered(productId, name, block.timestamp);\r\n    }\r\n    \r\n    function recordRental(string memory productId, address renter) public onlyAdmin {\r\n        require(products[productId].isRegistered, \"Product not registered\");\r\n        \r\n        RentalRecord memory newRental = RentalRecord({\r\n            renter: renter,\r\n            rentedAt: block.timestamp,\r\n            returnedAt: 0,\r\n            condition: \"\",\r\n            notes: \"\",\r\n            isReturned: false\r\n        });\r\n        \r\n        products[productId].rentalHistory.push(newRental);\r\n        emit RentalRecorded(productId, renter, block.timestamp);\r\n    }\r\n    \r\n    function recordReturn(\r\n        string memory productId, \r\n        address renter, \r\n        string memory condition,\r\n        string memory notes\r\n    ) public onlyAdmin {\r\n        require(products[productId].isRegistered, \"Product not registered\");\r\n        \r\n        RentalRecord[] storage history = products[productId].rentalHistory;\r\n        for (uint i = 0; i < history.length; i++) {\r\n            if (history[i].renter == renter && !history[i].isReturned) {\r\n                history[i].returnedAt = block.timestamp;\r\n                history[i].condition = condition;\r\n                history[i].notes = notes;\r\n                history[i].isReturned = true;\r\n                products[productId].currentCondition = condition;\r\n                \r\n                emit ReturnRecorded(productId, renter, block.timestamp, condition);\r\n                break;\r\n            }\r\n        }\r\n    }\r\n    \r\n    function getProductHistory(string memory productId) public view returns (\r\n        bool isRegistered,\r\n        string memory name,\r\n        string memory currentCondition,\r\n        RentalRecord[] memory history\r\n    ) {\r\n        Product storage product = products[productId];\r\n        return (\r\n            product.isRegistered,\r\n            product.name,\r\n            product.currentCondition,\r\n            product.rentalHistory\r\n        );\r\n    }\r\n} ",
  "sourcePath": "D:\\projects\\rental-store-mini-project\\contracts\\RentalHistory.sol",
  "compiler": {
    "name": "solc",
    "version": "0.8.0+commit.c7dfd78e.Emscripten.clang"
  },
  "schemaVersion": "3.4.16",
  "updatedAt": "2025-02-16T09:12:47.150Z",
  "devdoc": {
    "kind": "dev",
    "methods": {},
    "version": 1
  },
  "userdoc": {
    "kind": "user",
    "methods": {},
    "version": 1
  }
}